{
	"contracts/FallbackExample.sol": {
		"FallbackExample": {
			"abi": [
				{
					"stateMutability": "payable",
					"type": "fallback"
				},
				{
					"inputs": [],
					"name": "result",
					"outputs": [
						{
							"internalType": "uint256",
							"name": "",
							"type": "uint256"
						}
					],
					"stateMutability": "view",
					"type": "function"
				},
				{
					"stateMutability": "payable",
					"type": "receive"
				}
			],
			"devdoc": {
				"kind": "dev",
				"methods": {},
				"version": 1
			},
			"evm": {
				"assembly": "    /* \"contracts/FallbackExample.sol\":60:246  contract FallbackExample{... */\n  mstore(0x40, 0x80)\n  callvalue\n  dup1\n  iszero\n  tag_1\n  jumpi\n  0x00\n  dup1\n  revert\ntag_1:\n  pop\n  dataSize(sub_0)\n  dup1\n  dataOffset(sub_0)\n  0x00\n  codecopy\n  0x00\n  return\nstop\n\nsub_0: assembly {\n        /* \"contracts/FallbackExample.sol\":60:246  contract FallbackExample{... */\n      mstore(0x40, 0x80)\n      jumpi(tag_1, lt(calldatasize, 0x04))\n      shr(0xe0, calldataload(0x00))\n      dup1\n      0x65372147\n      eq\n      tag_3\n      jumpi\n      jump(tag_2)\n    tag_1:\n      jumpi(tag_2, calldatasize)\n        /* \"contracts/FallbackExample.sol\":169:170  1 */\n      0x01\n        /* \"contracts/FallbackExample.sol\":160:166  result */\n      0x00\n        /* \"contracts/FallbackExample.sol\":160:170  result = 1 */\n      dup2\n      swap1\n      sstore\n      stop\n        /* \"contracts/FallbackExample.sol\":60:246  contract FallbackExample{... */\n    tag_2:\n        /* \"contracts/FallbackExample.sol\":234:235  2 */\n      0x02\n        /* \"contracts/FallbackExample.sol\":225:231  result */\n      0x00\n        /* \"contracts/FallbackExample.sol\":225:235  result = 2 */\n      dup2\n      swap1\n      sstore\n      stop\n        /* \"contracts/FallbackExample.sol\":91:112  uint256 public result */\n    tag_3:\n      callvalue\n      dup1\n      iszero\n      tag_8\n      jumpi\n      0x00\n      dup1\n      revert\n    tag_8:\n      pop\n      tag_9\n      tag_10\n      jump\t// in\n    tag_9:\n      mload(0x40)\n      tag_11\n      swap2\n      swap1\n      tag_12\n      jump\t// in\n    tag_11:\n      mload(0x40)\n      dup1\n      swap2\n      sub\n      swap1\n      return\n    tag_10:\n      sload(0x00)\n      dup2\n      jump\t// out\n        /* \"#utility.yul\":7:84   */\n    tag_13:\n        /* \"#utility.yul\":44:51   */\n      0x00\n        /* \"#utility.yul\":73:78   */\n      dup2\n        /* \"#utility.yul\":62:78   */\n      swap1\n      pop\n        /* \"#utility.yul\":7:84   */\n      swap2\n      swap1\n      pop\n      jump\t// out\n        /* \"#utility.yul\":90:208   */\n    tag_14:\n        /* \"#utility.yul\":177:201   */\n      tag_18\n        /* \"#utility.yul\":195:200   */\n      dup2\n        /* \"#utility.yul\":177:201   */\n      tag_13\n      jump\t// in\n    tag_18:\n        /* \"#utility.yul\":172:175   */\n      dup3\n        /* \"#utility.yul\":165:202   */\n      mstore\n        /* \"#utility.yul\":90:208   */\n      pop\n      pop\n      jump\t// out\n        /* \"#utility.yul\":214:436   */\n    tag_12:\n        /* \"#utility.yul\":307:311   */\n      0x00\n        /* \"#utility.yul\":345:347   */\n      0x20\n        /* \"#utility.yul\":334:343   */\n      dup3\n        /* \"#utility.yul\":330:348   */\n      add\n        /* \"#utility.yul\":322:348   */\n      swap1\n      pop\n        /* \"#utility.yul\":358:429   */\n      tag_20\n        /* \"#utility.yul\":426:427   */\n      0x00\n        /* \"#utility.yul\":415:424   */\n      dup4\n        /* \"#utility.yul\":411:428   */\n      add\n        /* \"#utility.yul\":402:408   */\n      dup5\n        /* \"#utility.yul\":358:429   */\n      tag_14\n      jump\t// in\n    tag_20:\n        /* \"#utility.yul\":214:436   */\n      swap3\n      swap2\n      pop\n      pop\n      jump\t// out\n\n    auxdata: 0xa264697066735822122058e0d9b91b369eb0c3dcd25a742900c2a3fd60c78fe9bc90eeb46c1913bc551064736f6c63430008120033\n}\n",
				"bytecode": {
					"linkReferences": {},
					"object": "608060405234801561001057600080fd5b5060c78061001f6000396000f3fe608060405260043610601f5760003560e01c80636537214714603557602c565b36602c5760016000819055005b60026000819055005b348015604057600080fd5b506047605b565b604051605291906078565b60405180910390f35b60005481565b6000819050919050565b6072816061565b82525050565b6000602082019050608b6000830184606b565b9291505056fea264697066735822122058e0d9b91b369eb0c3dcd25a742900c2a3fd60c78fe9bc90eeb46c1913bc551064736f6c63430008120033",
					"opcodes": "PUSH1 0x80 PUSH1 0x40 MSTORE CALLVALUE DUP1 ISZERO PUSH2 0x10 JUMPI PUSH1 0x0 DUP1 REVERT JUMPDEST POP PUSH1 0xC7 DUP1 PUSH2 0x1F PUSH1 0x0 CODECOPY PUSH1 0x0 RETURN INVALID PUSH1 0x80 PUSH1 0x40 MSTORE PUSH1 0x4 CALLDATASIZE LT PUSH1 0x1F JUMPI PUSH1 0x0 CALLDATALOAD PUSH1 0xE0 SHR DUP1 PUSH4 0x65372147 EQ PUSH1 0x35 JUMPI PUSH1 0x2C JUMP JUMPDEST CALLDATASIZE PUSH1 0x2C JUMPI PUSH1 0x1 PUSH1 0x0 DUP2 SWAP1 SSTORE STOP JUMPDEST PUSH1 0x2 PUSH1 0x0 DUP2 SWAP1 SSTORE STOP JUMPDEST CALLVALUE DUP1 ISZERO PUSH1 0x40 JUMPI PUSH1 0x0 DUP1 REVERT JUMPDEST POP PUSH1 0x47 PUSH1 0x5B JUMP JUMPDEST PUSH1 0x40 MLOAD PUSH1 0x52 SWAP2 SWAP1 PUSH1 0x78 JUMP JUMPDEST PUSH1 0x40 MLOAD DUP1 SWAP2 SUB SWAP1 RETURN JUMPDEST PUSH1 0x0 SLOAD DUP2 JUMP JUMPDEST PUSH1 0x0 DUP2 SWAP1 POP SWAP2 SWAP1 POP JUMP JUMPDEST PUSH1 0x72 DUP2 PUSH1 0x61 JUMP JUMPDEST DUP3 MSTORE POP POP JUMP JUMPDEST PUSH1 0x0 PUSH1 0x20 DUP3 ADD SWAP1 POP PUSH1 0x8B PUSH1 0x0 DUP4 ADD DUP5 PUSH1 0x6B JUMP JUMPDEST SWAP3 SWAP2 POP POP JUMP INVALID LOG2 PUSH5 0x6970667358 0x22 SLT KECCAK256 PC 0xE0 0xD9 0xB9 SHL CALLDATASIZE SWAP15 0xB0 0xC3 0xDC 0xD2 GAS PUSH21 0x2900C2A3FD60C78FE9BC90EEB46C1913BC55106473 PUSH16 0x6C634300081200330000000000000000 "
				},
				"gasEstimates": {
					"creation": {
						"codeDepositCost": "39800",
						"executionCost": "93",
						"totalCost": "39893"
					},
					"external": {
						"": "22197",
						"result()": "2407"
					}
				},
				"methodIdentifiers": {
					"result()": "65372147"
				}
			},
			"storageLayout": {
				"storage": [
					{
						"astId": 3,
						"contract": "contracts/FallbackExample.sol:FallbackExample",
						"label": "result",
						"offset": 0,
						"slot": "0",
						"type": "t_uint256"
					}
				],
				"types": {
					"t_uint256": {
						"encoding": "inplace",
						"label": "uint256",
						"numberOfBytes": "32"
					}
				}
			},
			"userdoc": {
				"kind": "user",
				"methods": {},
				"version": 1
			}
		}
	}
}